{
  "contractName": "Exercice5",
  "abi": [
    {
      "inputs": [
        {
          "internalType": "uint256",
          "name": "nombre",
          "type": "uint256"
        }
      ],
      "name": "estPair",
      "outputs": [
        {
          "internalType": "string",
          "name": "",
          "type": "string"
        }
      ],
      "stateMutability": "pure",
      "type": "function",
      "constant": true
    }
  ],
  "bytecode": "0x608060405234801561001057600080fd5b506102a1806100206000396000f3fe608060405234801561001057600080fd5b506004361061002b5760003560e01c80631cee907f14610030575b600080fd5b61004a6004803603810190610045919061012c565b610060565b60405161005791906101e9565b60405180910390f35b60606000600283610071919061023a565b036100b3576040518060400160405280600481526020017f506169720000000000000000000000000000000000000000000000000000000081525090506100ec565b6040518060400160405280600681526020017f496d70616972000000000000000000000000000000000000000000000000000081525090505b919050565b600080fd5b6000819050919050565b610109816100f6565b811461011457600080fd5b50565b60008135905061012681610100565b92915050565b600060208284031215610142576101416100f1565b5b600061015084828501610117565b91505092915050565b600081519050919050565b600082825260208201905092915050565b60005b83811015610193578082015181840152602081019050610178565b60008484015250505050565b6000601f19601f8301169050919050565b60006101bb82610159565b6101c58185610164565b93506101d5818560208601610175565b6101de8161019f565b840191505092915050565b6000602082019050818103600083015261020381846101b0565b905092915050565b7f4e487b7100000000000000000000000000000000000000000000000000000000600052601260045260246000fd5b6000610245826100f6565b9150610250836100f6565b9250826102605761025f61020b565b5b82820690509291505056fea2646970667358221220211e10a6561c6acf6f2667c8c3f3baf9aa1138b3ca901407fb86daed6cb58e9e64736f6c63430008150033",
  "immutableReferences": {},
  "source": "// SPDX-License-Identifier: MIT\r\npragma solidity >=0.4.22 <0.9.0;\r\n\r\ncontract Exercice5 {\r\nfunction estPair(uint nombre) public pure returns (string memory) {\r\n    if (nombre % 2 == 0) {\r\n        return \"Pair\";\r\n    } else {\r\n        return \"Impair\";\r\n    }\r\n}\r\n}\r\n",
  "sourcePath": "C:\\Users\\LENOVO\\DApp\\contracts\\Exercice5.sol",
  "compiler": {
    "name": "solc",
    "version": "0.8.21+commit.d9974bed.Emscripten.clang"
  },
  "schemaVersion": "3.4.16",
  "updatedAt": "2026-06-14T23:12:31.152Z",
  "networkType": "ethereum",
  "devdoc": {
    "kind": "dev",
    "methods": {},
    "version": 1
  },
  "userdoc": {
    "kind": "user",
    "methods": {},
    "version": 1
  }
}