{
  "contractName": "Exercice6",
  "abi": [
    {
      "inputs": [],
      "stateMutability": "nonpayable",
      "type": "constructor"
    },
    {
      "inputs": [
        {
          "internalType": "uint256",
          "name": "",
          "type": "uint256"
        }
      ],
      "name": "nombres",
      "outputs": [
        {
          "internalType": "uint256",
          "name": "",
          "type": "uint256"
        }
      ],
      "stateMutability": "view",
      "type": "function",
      "constant": true
    },
    {
      "inputs": [
        {
          "internalType": "uint256",
          "name": "n",
          "type": "uint256"
        }
      ],
      "name": "ajouterNombre",
      "outputs": [],
      "stateMutability": "nonpayable",
      "type": "function"
    },
    {
      "inputs": [
        {
          "internalType": "uint256",
          "name": "index",
          "type": "uint256"
        }
      ],
      "name": "getElement",
      "outputs": [
        {
          "internalType": "uint256",
          "name": "",
          "type": "uint256"
        }
      ],
      "stateMutability": "view",
      "type": "function",
      "constant": true
    },
    {
      "inputs": [],
      "name": "afficheTableau",
      "outputs": [
        {
          "internalType": "uint256[]",
          "name": "",
          "type": "uint256[]"
        }
      ],
      "stateMutability": "view",
      "type": "function",
      "constant": true
    },
    {
      "inputs": [],
      "name": "calculerSomme",
      "outputs": [
        {
          "internalType": "uint256",
          "name": "",
          "type": "uint256"
        }
      ],
      "stateMutability": "view",
      "type": "function",
      "constant": true
    }
  ],
  "bytecode": "0x608060405234801561000f575f80fd5b505f600a908060018154018082558091505060019003905f5260205f20015f90919091909150555f6014908060018154018082558091505060019003905f5260205f20015f90919091909150555f601e908060018154018082558091505060019003905f5260205f20015f90919091909150556105518061008f5f395ff3fe608060405234801561000f575f80fd5b5060043610610055575f3560e01c80631f4440b0146100595780633a7d22bc146100775780637692fb5f146100a7578063bd92c667146100d7578063e66df334146100f3575b5f80fd5b610061610111565b60405161006e919061032e565b60405180910390f35b610091600480360381019061008c919061037c565b610166565b60405161009e91906103b6565b60405180910390f35b6100c160048036038101906100bc919061037c565b6101d0565b6040516100ce91906103b6565b60405180910390f35b6100f160048036038101906100ec919061037c565b6101ef565b005b6100fb610217565b60405161010891906103b6565b60405180910390f35b60605f80548060200260200160405190810160405280929190818152602001828054801561015c57602002820191905f5260205f20905b815481526020019060010190808311610148575b5050505050905090565b5f808054905082106101ad576040517f08c379a00000000000000000000000000000000000000000000000000000000081526004016101a490610429565b60405180910390fd5b5f82815481106101c0576101bf610447565b5b905f5260205f2001549050919050565b5f81815481106101de575f80fd5b905f5260205f20015f915090505481565b5f81908060018154018082558091505060019003905f5260205f20015f909190919091505550565b5f805f90505f5b5f80549050811015610266575f818154811061023d5761023c610447565b5b905f5260205f2001548261025191906104a1565b9150808061025e906104d4565b91505061021e565b508091505090565b5f81519050919050565b5f82825260208201905092915050565b5f819050602082019050919050565b5f819050919050565b6102a981610297565b82525050565b5f6102ba83836102a0565b60208301905092915050565b5f602082019050919050565b5f6102dc8261026e565b6102e68185610278565b93506102f183610288565b805f5b8381101561032157815161030888826102af565b9750610313836102c6565b9250506001810190506102f4565b5085935050505092915050565b5f6020820190508181035f83015261034681846102d2565b905092915050565b5f80fd5b61035b81610297565b8114610365575f80fd5b50565b5f8135905061037681610352565b92915050565b5f602082840312156103915761039061034e565b5b5f61039e84828501610368565b91505092915050565b6103b081610297565b82525050565b5f6020820190506103c95f8301846103a7565b92915050565b5f82825260208201905092915050565b7f496e64657820696e76616c6964650000000000000000000000000000000000005f82015250565b5f610413600e836103cf565b915061041e826103df565b602082019050919050565b5f6020820190508181035f83015261044081610407565b9050919050565b7f4e487b71000000000000000000000000000000000000000000000000000000005f52603260045260245ffd5b7f4e487b71000000000000000000000000000000000000000000000000000000005f52601160045260245ffd5b5f6104ab82610297565b91506104b683610297565b92508282019050808211156104ce576104cd610474565b5b92915050565b5f6104de82610297565b91507fffffffffffffffffffffffffffffffffffffffffffffffffffffffffffffffff82036105105761050f610474565b5b60018201905091905056fea26469706673582212206feb964740dee02ce024c6fbd575ea6fbe6da6050b783bf9d57d13b0b7167a2064736f6c63430008150033",
  "immutableReferences": {},
  "source": "// SPDX-License-Identifier: MIT\npragma solidity >=0.4.22 <0.9.0;\n\ncontract Exercice6 {\nuint[] public nombres;\n\n    constructor() {\n        nombres.push(10);\n        nombres.push(20);\n        nombres.push(30);\n    }\n\n    function ajouterNombre(uint n) public {\n        nombres.push(n);\n    }\n\n    function getElement(uint index) public view returns (uint) {\n        require(index < nombres.length, \"Index invalide\");\n        return nombres[index];\n    }\n\n    function afficheTableau() public view returns (uint[] memory) {\n        return nombres;\n    }\n\n    function calculerSomme() public view returns (uint) {\n        uint somme = 0;\n        for (uint i = 0; i < nombres.length; i++) {\n            somme += nombres[i];\n        }\n        return somme;\n    }\n}\n",
  "sourcePath": "C:\\Users\\LENOVO\\Desktop\\DApps\\contracts\\Exercice6.sol",
  "compiler": {
    "name": "solc",
    "version": "0.8.21+commit.d9974bed.Emscripten.clang"
  },
  "schemaVersion": "3.4.16",
  "updatedAt": "2026-05-29T19:22:50.396Z",
  "networkType": "ethereum",
  "devdoc": {
    "kind": "dev",
    "methods": {},
    "version": 1
  },
  "userdoc": {
    "kind": "user",
    "methods": {},
    "version": 1
  }
}