{
  "contractName": "Exercice1",
  "abi": [
    {
      "inputs": [
        {
          "internalType": "uint256",
          "name": "nbr11",
          "type": "uint256"
        },
        {
          "internalType": "uint256",
          "name": "nbr22",
          "type": "uint256"
        }
      ],
      "stateMutability": "nonpayable",
      "type": "constructor"
    },
    {
      "inputs": [],
      "name": "nbr1",
      "outputs": [
        {
          "internalType": "uint256",
          "name": "",
          "type": "uint256"
        }
      ],
      "stateMutability": "view",
      "type": "function",
      "constant": true
    },
    {
      "inputs": [],
      "name": "nbr2",
      "outputs": [
        {
          "internalType": "uint256",
          "name": "",
          "type": "uint256"
        }
      ],
      "stateMutability": "view",
      "type": "function",
      "constant": true
    },
    {
      "inputs": [],
      "name": "addition1",
      "outputs": [
        {
          "internalType": "uint256",
          "name": "",
          "type": "uint256"
        }
      ],
      "stateMutability": "view",
      "type": "function",
      "constant": true
    },
    {
      "inputs": [
        {
          "internalType": "uint256",
          "name": "a",
          "type": "uint256"
        },
        {
          "internalType": "uint256",
          "name": "b",
          "type": "uint256"
        }
      ],
      "name": "addition2",
      "outputs": [
        {
          "internalType": "uint256",
          "name": "",
          "type": "uint256"
        }
      ],
      "stateMutability": "pure",
      "type": "function",
      "constant": true
    }
  ],
  "bytecode": "0x608060405234801561000f575f80fd5b506040516103073803806103078339818101604052810190610031919061007c565b815f819055508060018190555050506100ba565b5f80fd5b5f819050919050565b61005b81610049565b8114610065575f80fd5b50565b5f8151905061007681610052565b92915050565b5f806040838503121561009257610091610045565b5b5f61009f85828601610068565b92505060206100b085828601610068565b9150509250929050565b610240806100c75f395ff3fe608060405234801561000f575f80fd5b506004361061004a575f3560e01c80634d3e46e41461004e57806351e09d891461006c578063a9619bc31461008a578063f1d16438146100a8575b5f80fd5b6100566100d8565b6040516100639190610125565b60405180910390f35b6100746100ed565b6040516100819190610125565b60405180910390f35b6100926100f2565b60405161009f9190610125565b60405180910390f35b6100c260048036038101906100bd919061016c565b6100f8565b6040516100cf9190610125565b60405180910390f35b5f6001545f546100e891906101d7565b905090565b5f5481565b60015481565b5f818361010591906101d7565b905092915050565b5f819050919050565b61011f8161010d565b82525050565b5f6020820190506101385f830184610116565b92915050565b5f80fd5b61014b8161010d565b8114610155575f80fd5b50565b5f8135905061016681610142565b92915050565b5f80604083850312156101825761018161013e565b5b5f61018f85828601610158565b92505060206101a085828601610158565b9150509250929050565b7f4e487b71000000000000000000000000000000000000000000000000000000005f52601160045260245ffd5b5f6101e18261010d565b91506101ec8361010d565b9250828201905080821115610204576102036101aa565b5b9291505056fea2646970667358221220d9094c218607ecc38780a44a7200d41d95f0e909efbf1645ce24cd3c1b83987164736f6c63430008150033",
  "immutableReferences": {},
  "source": "// SPDX-License-Identifier: MIT\npragma solidity >=0.4.22 <0.9.0;\n\ncontract Exercice1 {\n  uint public nbr1;\n  uint public nbr2;\n  constructor(uint nbr11, uint nbr22)  {\n    nbr1 = nbr11;\n    nbr2 = nbr22;\n}\n\n  function addition1() public view returns (uint) {\n    return nbr1 + nbr2;\n  }\n  \n  function addition2(uint a, uint b) public pure returns (uint) {\n    return a + b ;\n  }\n\n}\n",
  "sourcePath": "C:\\Users\\LENOVO\\Desktop\\DApps\\contracts\\Exercice1.sol",
  "compiler": {
    "name": "solc",
    "version": "0.8.21+commit.d9974bed.Emscripten.clang"
  },
  "schemaVersion": "3.4.16",
  "updatedAt": "2026-05-29T18:11:33.375Z",
  "networkType": "ethereum",
  "devdoc": {
    "kind": "dev",
    "methods": {},
    "version": 1
  },
  "userdoc": {
    "kind": "user",
    "methods": {},
    "version": 1
  }
}