{
  "contractName": "Payment",
  "abi": [
    {
      "inputs": [
        {
          "internalType": "address",
          "name": "_recipient",
          "type": "address"
        }
      ],
      "stateMutability": "nonpayable",
      "type": "constructor"
    },
    {
      "inputs": [],
      "name": "recipient",
      "outputs": [
        {
          "internalType": "address",
          "name": "",
          "type": "address"
        }
      ],
      "stateMutability": "view",
      "type": "function",
      "constant": true
    },
    {
      "inputs": [],
      "name": "receivePayment",
      "outputs": [],
      "stateMutability": "payable",
      "type": "function",
      "payable": true
    },
    {
      "inputs": [],
      "name": "withdraw",
      "outputs": [],
      "stateMutability": "nonpayable",
      "type": "function"
    }
  ],
  "bytecode": "0x608060405234801561000f575f80fd5b50604051610563380380610563833981810160405281019061003191906100d4565b805f806101000a81548173ffffffffffffffffffffffffffffffffffffffff021916908373ffffffffffffffffffffffffffffffffffffffff160217905550506100ff565b5f80fd5b5f73ffffffffffffffffffffffffffffffffffffffff82169050919050565b5f6100a38261007a565b9050919050565b6100b381610099565b81146100bd575f80fd5b50565b5f815190506100ce816100aa565b92915050565b5f602082840312156100e9576100e8610076565b5b5f6100f6848285016100c0565b91505092915050565b6104578061010c5f395ff3fe608060405260043610610033575f3560e01c80633ccfd60b1461003757806366d003ac1461004d578063835c19f314610077575b5f80fd5b348015610042575f80fd5b5061004b610081565b005b348015610058575f80fd5b506100616101d9565b60405161006e919061027f565b60405180910390f35b61007f6101fc565b005b5f8054906101000a900473ffffffffffffffffffffffffffffffffffffffff1673ffffffffffffffffffffffffffffffffffffffff163373ffffffffffffffffffffffffffffffffffffffff161461010e576040517f08c379a0000000000000000000000000000000000000000000000000000000008152600401610105906102f2565b60405180910390fd5b5f805f9054906101000a900473ffffffffffffffffffffffffffffffffffffffff1673ffffffffffffffffffffffffffffffffffffffff16476040516101539061033d565b5f6040518083038185875af1925050503d805f811461018d576040519150601f19603f3d011682016040523d82523d5f602084013e610192565b606091505b50509050806101d6576040517f08c379a00000000000000000000000000000000000000000000000000000000081526004016101cd9061039b565b60405180910390fd5b50565b5f8054906101000a900473ffffffffffffffffffffffffffffffffffffffff1681565b5f341161023e576040517f08c379a000000000000000000000000000000000000000000000000000000000815260040161023590610403565b60405180910390fd5b565b5f73ffffffffffffffffffffffffffffffffffffffff82169050919050565b5f61026982610240565b9050919050565b6102798161025f565b82525050565b5f6020820190506102925f830184610270565b92915050565b5f82825260208201905092915050565b7f566f7573206e276574657320706173206c652064657374696e617461697265215f82015250565b5f6102dc602083610298565b91506102e7826102a8565b602082019050919050565b5f6020820190508181035f830152610309816102d0565b9050919050565b5f81905092915050565b50565b5f6103285f83610310565b91506103338261031a565b5f82019050919050565b5f6103478261031d565b9150819050919050565b7f5472616e73666572206661696c65642e000000000000000000000000000000005f82015250565b5f610385601083610298565b915061039082610351565b602082019050919050565b5f6020820190508181035f8301526103b281610379565b9050919050565b7f4d6f6e74616e7420646f697420657472652073757065726965757220612030005f82015250565b5f6103ed601f83610298565b91506103f8826103b9565b602082019050919050565b5f6020820190508181035f83015261041a816103e1565b905091905056fea2646970667358221220740f6940d96151dee630a86af46bf08959b17e58d407e7ca692a39977b3010f764736f6c63430008150033",
  "immutableReferences": {},
  "source": "// SPDX-License-Identifier: MIT\npragma solidity >=0.4.22 <0.9.0;\n\ncontract Payment {\n address public recipient;\n\n    constructor(address _recipient) {\n        recipient = _recipient;\n    }\n\n    function receivePayment() public payable {\n        require(msg.value > 0, \"Montant doit etre superieur a 0\");\n    }\n\n    function withdraw() public {\n        require(msg.sender == recipient, \"Vous n'etes pas le destinataire!\");\n        (bool success, ) = payable(recipient).call{value: address(this).balance}(\"\");\n        require(success, \"Transfer failed.\");\n    }\n\n}\n",
  "sourcePath": "C:\\Users\\LENOVO\\Desktop\\DApps\\contracts\\Exercice8.sol",
  "compiler": {
    "name": "solc",
    "version": "0.8.21+commit.d9974bed.Emscripten.clang"
  },
  "schemaVersion": "3.4.16",
  "updatedAt": "2026-05-29T18:11:33.391Z",
  "networkType": "ethereum",
  "devdoc": {
    "kind": "dev",
    "methods": {},
    "version": 1
  },
  "userdoc": {
    "kind": "user",
    "methods": {},
    "version": 1
  }
}